:0400000007EF00F016
:0A00080057825FED0AF0E2EF09F005
:100600000000206E3950D8A408EF03F00AEF03F081
:10061000CCEF03F0406A416A426A436A400E016EC1
:10062000B0EC09F013EC0AF00009D8B41AEF03F0AB
:100630001CEF03F0CCEF03F0000167510A0DF3CF7C
:1006400011F0F4CF12F06651640DF3CF13F0F4CF34
:1006500014F06551156E166AE80E1502F3CF17F007
:10066000F4CF18F01602F3501826030E1502F350BB
:10067000182613501724196E145018201A6E115092
:1006800019241B6E12501A201C6E68511B26000E76
:100690001C22B00E1B24296E2F0E1C202A6E030E66
:1006A000A7EC0AF0116E020EA7EC0AF0126E1250BF
:1006B0000A0DF3CF13F0F4CF14F0010EA7EC0AF0FB
:1006C000156E1550640DF3CF16F0F4CF17F0000E31
:1006D000A7EC0AF0186E196AE80E1802F3CF1AF0A8
:1006E000F4CF1BF01902F3501B26030E1802F3502F
:1006F0001B2616501A241C6E17501B201D6E1350FB
:100700001C241E6E14501D201F6E11501E24276EB7
:10071000000E1F20286E2750291807E128502A189C
:10072000D8A495EF03F097EF03F0CCEF03F0010EA0
:10073000396E00016B510A0DF3CF11F0F4CF12F0B6
:100740006A51640DF3CF13F0F4CF14F06951156EB4
:10075000166AE80E1502F3CF17F0F4CF18F0160260
:10076000F3501826030E1502F350182613501724C1
:10077000196E145018201A6E115019241B6E125045
:100780001A201C6E6C511B26000E1C22B00E1B245E
:10079000256E2F0E1C20266E3904D8A4D2EF03F04C
:1007A000D4EF03F0FEEF04F0000E76EC09F0216EBA
:1007B0000E0E2118D8A4DFEF03F0E1EF03F00AEFEB
:1007C00004F02350116E2450126E234A242A125032
:1007D00009E1330E115CD8A0F0EF03F0F2EF03F063
:1007E0000AEF04F0000E246E000E236E254A262A1E
:1007F00026BE04EF04F0100E255C270E2658D8A064
:1008000004EF04F006EF04F00AEF04F0000E266E89
:10081000000E256E0D0E2118D8A411EF04F013EF71
:1008200004F036EF04F02350116E2450126E234A68
:10083000242A125009E1330E115CD8A022EF04F0F3
:1008400024EF04F036EF04F0000E246E000E236E49
:100850002506D8A0260626BE32EF04F030EF04F0BD
:1008600036EF04F0270E266E0F0E256E0B0E2018A5
:10087000D8A43DEF04F03FEF04F09CEF04F0030E2A
:10088000046EE80E036E25C001F026C002F0C9EC2C
:1008900007F001C009F002C00AF0000E0C6E0A0E4B
:1008A0000B6EE4EC08F009500F6E040E79EC0AF0C0
:1008B000000E046E640E036E25C001F026C002F027
:1008C000C9EC07F001C009F002C00AF0000E0C6E7E
:1008D0000A0E0B6EE4EC08F009500F6E050E79EC71
:1008E0000AF0000E046E0A0E036E25C001F026C049
:1008F00002F0C9EC07F001C009F002C00AF0000ED6
:100900000C6E0A0E0B6EE4EC08F009500F6E060E2A
:1009100079EC0AF025C009F026C00AF0000E0C6E32
:100920000A0E0B6EE4EC08F009500F6E070E79EC1E
:100930000AF03BEC09F0396A030E046EE80E036E10
:1009400025C001F026C002F0C9EC07F001C009F093
:1009500002C00AF0000E0C6E0A0E0B6EE4EC08F0FA
:100960000950440FD96EDA6ADF50406E000E046EF3
:10097000640E036E25C001F026C002F0C9EC07F03A
:1009800001C009F002C00AF0000E0C6E0A0E0B6ED8
:10099000E4EC08F00950440FD96EDA6ADF50416E7A
:1009A000000E046E0A0E036E25C001F026C002F090
:1009B000C9EC07F001C009F002C00AF0000E0C6E8D
:1009C0000A0E0B6EE4EC08F00950440FD96EDA6A97
:1009D000DF50426E25C009F026C00AF0000E0C6EF2
:1009E0000A0E0B6EE4EC08F00950440FD96EDA6A77
:1009F000DF50436E400E016EB0EC09F01200126E33
:100A0000AF0E52185310D8A408EF05F00AEF05F006
:100A100026EF05F0040EA7EC0AF0116E1150526E8D
:100A2000536A050EA7EC0AF0116E11502F6E306A52
:100A3000060EA7EC0AF0116E11502D6E2E6A070EED
:100A4000A7EC0AF0116E11502B6E2C6A0E0E1218C4
:100A5000D8A42DEF05F02FEF05F0A1EF05F03A50E7
:100A6000D8A435EF05F037EF05F04BEF05F0524A0B
:100A7000532A53BE45EF05F0535009E10A0E525C6C
:100A8000D8A045EF05F047EF05F04BEF05F0000E5D
:100A9000536E000E526E3A04D8A451EF05F053EF96
:100AA00005F067EF05F02F4A302A30BE61EF05F000
:100AB000305009E10A0E2F5CD8A061EF05F063EF1A
:100AC00005F067EF05F0000E306E000E2F6E020E7F
:100AD0003A18D8A46EEF05F070EF05F084EF05F03A
:100AE0002D4A2E2A2EBE7EEF05F02E5009E10A0E69
:100AF0002D5CD8A07EEF05F080EF05F084EF05F0C7
:100B0000000E2E6E000E2D6E030E3A18D8A48BEF39
:100B100005F08DEF05F0A1EF05F02B4A2C2A2CBE35
:100B20009BEF05F02C5009E10A0E2B5CD8A09BEF3F
:100B300005F09DEF05F0A1EF05F0000E2C6E000E04
:100B40002B6E0D0E1218D8A4A8EF05F0AAEF05F031
:100B5000B4EF05F03A2A030E3A64B1EF05F0B3EFB3
:100B600005F0B4EF05F03A6A0B0E1218D8A4BBEFEB
:100B700005F0BDEF05F0D8EF05F052C00FF0040E00
:100B800079EC0AF02FC00FF0050E79EC0AF02DC0B9
:100B90000FF0060E79EC0AF02BC00FF0070E79EC7F
:100BA0000AF03E6A3BEC09F064EF06F064EF06F0F1
:100BB0003A50D8A4DEEF05F0E0EF05F0FBEF05F0CA
:100BC0005250440FD96EDA6ADF501009406E2F5030
:100BD000440FD96EDA6ADF50416E2D50440FD96E42
:100BE000DA6ADF50426E2B50440FD96EDA6ADF505A
:100BF000436E64EF06F03A04D8A401EF06F003EF69
:100C000006F01EEF06F05250440FD96EDA6ADF503C
:100C1000406E2F50440FD96EDA6ADF501009416ED2
:100C20002D50440FD96EDA6ADF50426E2B50440FBC
:100C3000D96EDA6ADF50436E64EF06F0020E3A189E
:100C4000D8A425EF06F027EF06F042EF06F0525049
:100C5000440FD96EDA6ADF50406E2F50440FD96EC0
:100C6000DA6ADF50416E2D50440FD96EDA6ADF50D8
:100C70001009426E2B50440FD96EDA6ADF50436E72
:100C800064EF06F0030E3A18D8A449EF06F04BEFD4
:100C900006F0D6EF05F05250440FD96EDA6ADF50F5
:100CA000406E2F50440FD96EDA6ADF50416E2D50DE
:100CB000440FD96EDA6ADF50426E2B50440FD96E62
:100CC000DA6ADF501009436E1200126EB00E54182B
:100CD0005510D8A46EEF06F070EF06F08CEF06F01A
:100CE000000EA7EC0AF0116E1150546E556A010EF9
:100CF000A7EC0AF0116E1150356E366A020EA7ECA1
:100D00000AF0116E1150336E346A030EA7EC0AF02C
:100D1000116E1150316E326A0E0E1218D8A493EF74
:100D200006F095EF06F007EF07F03B50D8A49BEFD5
:100D300006F09DEF06F0B1EF06F0544A552A55BE75
:100D4000ABEF06F0555009E10A0E545CD8A0ABEFAA
:100D500006F0ADEF06F0B1EF06F0000E556E000E96
:100D6000546E3B04D8A4B7EF06F0B9EF06F0CDEF10
:100D700006F0354A362A36BEC7EF06F0365009E18E
:100D80000A0E355CD8A0C7EF06F0C9EF06F0CDEF2C
:100D900006F0000E366E000E356E020E3B18D8A41B
:100DA000D4EF06F0D6EF06F0EAEF06F0334A342A25
:100DB00034BEE4EF06F0345009E10A0E335CD8A0EB
:100DC000E4EF06F0E6EF06F0EAEF06F0000E346E10
:100DD000000E336E030E3B18D8A4F1EF06F0F3EFCC
:100DE00006F007EF07F0314A322A32BE01EF07F072
:100DF000325009E10A0E315CD8A001EF07F003EF91
:100E000007F007EF07F0000E326E000E316E0D0E88
:100E10001218D8A40EEF07F010EF07F01AEF07F042
:100E20003B2A030E3B6417EF07F019EF07F01AEFA8
:100E300007F03B6A0B0E1218D8A421EF07F023EF3E
:100E400007F03CEF07F054C00FF0000E79EC0AF009
:100E500035C00FF0010E79EC0AF033C00FF0020E2E
:100E600079EC0AF031C00FF0030E79EC0AF03E6A1B
:100E7000C8EF07F0C8EF07F03B50D8A442EF07F0E7
:100E800044EF07F05FEF07F05450440FD96EDA6A71
:100E9000DF501009406E3550440FD96EDA6ADF50CA
:100EA000416E3350440FD96EDA6ADF50426E3150D2
:100EB000440FD96EDA6ADF50436EC8EF07F03B0487
:100EC000D8A465EF07F067EF07F082EF07F0545002
:100ED000440FD96EDA6ADF50406E3550440FD96E38
:100EE000DA6ADF501009416E3350440FD96EDA6A66
:100EF000DF50426E3150440FD96EDA6ADF50436ED4
:100F0000C8EF07F0020E3B18D8A489EF07F08BEF6B
:100F100007F0A6EF07F05450440FD96EDA6ADF509D
:100F2000406E3550440FD96EDA6ADF50416E33504F
:100F3000440FD96EDA6ADF501009426E3150440F07
:100F4000D96EDA6ADF50436EC8EF07F0030E3B1824
:100F5000D8A4ADEF07F0AFEF07F03AEF07F0545029
:100F6000440FD96EDA6ADF50406E3550440FD96EA7
:100F7000DA6ADF50416E3350440FD96EDA6ADF50BF
:100F8000426E3150440FD96EDA6ADF501009436E59
:100F90001200066A04BED1EF07F0CFEF07F0D7EFDB
:100FA00007F0036C041ED8B0042A010E066E02BEC0
:100FB000DEEF07F0DCEF07F0E4EF07F0016C021E54
:100FC000D8B0022A010E061A000E086E000E076E37
:100FD00003500410D8B4EFEF07F0F1EF07F019EF6A
:100FE00008F0010E056EF9EF07F0D89003360436CD
:100FF000052A04AEFEEF07F000EF08F0F5EF07F06A
:10100000D890073608360350015C04500258D8A027
:101010000CEF08F00EEF08F013EF08F00350015E3C
:101020000450025A0780D89004320332052E00EF94
:1010300008F00650D8B41FEF08F021EF08F025EFB4
:1010400008F0076C081ED8B0082A07C001F008C0D5
:1010500002F01200076E3C50D8A431EF08F033EFD5
:1010600008F063EF08F00B0E0718D8A43AEF08F069
:101070003CEF08F047EF08F03D50D8B442EF08F0DD
:1010800045EF08F0010E46EF08F0000E3D6E0D0E24
:101090000718D8A44EEF08F050EF08F063EF08F0FF
:1010A000010E3C6E3D50D8A458EF08F05AEF08F0FE
:1010B0005EEF08F0020E3E6E60EF08F0030E3E6E2B
:1010C0003C6A87EF08F03D50D8A469EF08F06BEF59
:1010D00008F073EF08F04EC040F04FC041F050C030
:1010E00042F051C043F03D04D8A479EF08F07BEF03
:1010F00008F083EF08F06DC040F06EC041F06FC0A3
:1011000042F070C043F0400E016EB0EC09F01200E6
:1011100092EC0AF0010E76EC09F0226E375038108E
:10112000D8B495EF08F097EF08F0A8EF08F0000E9C
:10113000386E000E376E3F50D8B4A1EF08F0A3EF21
:1011400008F0A7EF08F0010E3E6EA8EF08F03E6A27
:101150003E50D8A4AEEF08F0B0EF08F0B5EF08F0BD
:10116000225001EC03F0DCEF08F03E04D8A4BBEF02
:1011700008F0BDEF08F0C2EF08F022502AEC08F0AA
:10118000DCEF08F0020E3E18D8A4C9EF08F0CBEF50
:1011900008F0D0EF08F0225065EC06F0DCEF08F024
:1011A000030E3E18D8A4D7EF08F0D9EF08F0DCEF13
:1011B00008F02250FFEC04F0400E016EB0EC09F094
:1011C0008AEF08F007EF00F00E6A0ABEECEF08F0B5
:1011D000EAEF08F0F2EF08F0096C0A1ED8B00A2A0C
:1011E000010E0E6E0CBEF9EF08F0F7EF08F0FDEF00
:1011F00008F00B6C0C1ED8B00C2A0B500C10D8B495
:1012000004EF09F006EF09F02AEF09F0010E0D6E68
:101210000EEF09F0D8900B360C360D2A0CAE13EFFA
:1012200009F015EF09F00AEF09F00B50095C0C50BA
:101230000A58D8A01EEF09F020EF09F024EF09F0BA
:101240000B50095E0C500A5AD8900C320B320D2EFE
:1012500015EF09F00E50D8B430EF09F032EF09F075
:1012600036EF09F0096C0A1ED8B00A2A09C009F045
:101270000AC00AF012000F01436B446B6B0E416F02
:10128000C00E426F080E456F000EA7EC0AF0300F3B
:101290000F01466F010EA7EC0AF0300F0F01476FE8
:1012A000020EA7EC0AF0300F0F01486F030EA7ECF7
:1012B0000AF0300F0F01496F040EA7EC0AF0300F4F
:1012C0000F014A6F050EA7EC0AF0300F0F014B6FAC
:1012D000060EA7EC0AF0300F0F014C6F070EA7ECBB
:1012E0000AF0300F0F014D6F40871200016E0104AC
:1012F000D8A47DEF09F07FEF09F0A4EF09F0825048
:101300000F0B0F0AD8B487EF09F089EF09F096EFB9
:1013100009F05650D8B48FEF09F091EF09F096EF2D
:1013200009F0566A82500F0BAFEF09F082500F0B95
:101330000F0AD8A49EEF09F0A0EF09F0AEEF09F074
:10134000010E566EAEEF09F00150D8A4AAEF09F0D5
:10135000ACEF09F0AEEF09F092EF09F0FF0E1200CA
:10136000066A01500624D96EDA6ADF50836E06C021
:1013700002F0010E036E022AC0EF09F0D890033686
:10138000022EBEEF09F08050F00B0310806E030EAA
:10139000056EE80E046E0406D8A00506042806E1D2
:1013A0000528D8A4D6EF09F0D8EF09F0CBEF09F063
:1013B000062A030E0664DFEF09F0E1EF09F0B1EF52
:1013C00009F01200800EF66E150EF76E000EF86E24
:1013D00000EE6DF010EE04F00900F5CFEEFFE550E1
:1013E000E150FAE13A0EF66E150EF76E000EF86E49
:1013F00000EE44F010EE13F00900F5CFEEFFE550DB
:10140000E150FAE100EE60F00D0EEE6AE806FDE153
:1014100000EE23F0210EEE6AE806FDE157905792A8
:10142000000188EF08F060AE18EF0AF01AEF0AF03A
:1014300039EF0AF063CF60F064CF61F061CF62F002
:1014400062CF63F065CF64F066CF65F067CF66F07A
:1014500068CF67F069CF68F06ACF69F06BCF6AF048
:101460006CCF6BF06DCF6CF0609EA490010E3AEFE4
:101470000AF0000E1200939493861F0E6F166F8E63
:10148000800E6E18D8A447EF0AF049EF0AF040EF3B
:101490000AF0776AE10E706E1B0E716E030E726EAB
:1014A000010E0D01D46F0F01026B036B6B0E006F09
:1014B000C00E016F1F0E6F166F50606A120006009B
:1014C000F2A265EF0AF067EF0AF077EF0AF0000E7C
:1014D000386E010E376E3F50D8B471EF0AF074EFDA
:1014E0000AF0010E75EF0AF0000E3F6EF29257926D
:1014F0001100106E10C0A9FF0FC0A8FFA69EA69CE9
:10150000A684F29E550EA76EAA0EA76EA682A1A86B
:101510008CEF0AF08EEF0AF087EF0AF0A198F28EB6
:10152000A6921200BCEC0AF0F28CF28EB8EC0AF033
:10153000B0EC0AF03BEC0AF01200E721CB6B2D6E09
:0D154000EE23EF6FA80880E9AF00B00001B6
:10154E00016E01C0A9FFA694A69EA69CA680A850D7
:10155E001200956A9250F00B926E8050F00B806ED6
:10156E001200F18CF292F288120094500F09946ED0
:06157E001200E5086ECC2E
:020000040020DA
:08000000FFFFFFFFFFFFFFFF00
:020000040030CA
:0E000000FF071F1FFF8285FF0FC00FE00F409C
:00000001FF
